{
  "abi": [
    {
      "type": "constructor",
      "inputs": [
        {
          "name": "_art",
          "type": "address",
          "internalType": "contract INounsArt"
        },
        {
          "name": "_renderer",
          "type": "address",
          "internalType": "contract ISVGRenderer"
        }
      ],
      "stateMutability": "nonpayable"
    },
    {
      "type": "function",
      "name": "accessories",
      "inputs": [
        {
          "name": "index",
          "type": "uint256",
          "internalType": "uint256"
        }
      ],
      "outputs": [
        {
          "name": "",
          "type": "bytes",
          "internalType": "bytes"
        }
      ],
      "stateMutability": "view"
    },
    {
      "type": "function",
      "name": "accessoryCount",
      "inputs": [],
      "outputs": [
        {
          "name": "",
          "type": "uint256",
          "internalType": "uint256"
        }
      ],
      "stateMutability": "view"
    },
    {
      "type": "function",
      "name": "addAccessories",
      "inputs": [
        {
          "name": "encodedCompressed",
          "type": "bytes",
          "internalType": "bytes"
        },
        {
          "name": "decompressedLength",
          "type": "uint80",
          "internalType": "uint80"
        },
        {
          "name": "imageCount",
          "type": "uint16",
          "internalType": "uint16"
        }
      ],
      "outputs": [],
      "stateMutability": "nonpayable"
    },
    {
      "type": "function",
      "name": "addAccessoriesFromPointer",
      "inputs": [
        {
          "name": "pointer",
          "type": "address",
          "internalType": "address"
        },
        {
          "name": "decompressedLength",
          "type": "uint80",
          "internalType": "uint80"
        },
        {
          "name": "imageCount",
          "type": "uint16",
          "internalType": "uint16"
        }
      ],
      "outputs": [],
      "stateMutability": "nonpayable"
    },
    {
      "type": "function",
      "name": "addBackground",
      "inputs": [
        {
          "name": "_background",
          "type": "string",
          "internalType": "string"
        }
      ],
      "outputs": [],
      "stateMutability": "nonpayable"
    },
    {
      "type": "function",
      "name": "addBodies",
      "inputs": [
        {
          "name": "encodedCompressed",
          "type": "bytes",
          "internalType": "bytes"
        },
        {
          "name": "decompressedLength",
          "type": "uint80",
          "internalType": "uint80"
        },
        {
          "name": "imageCount",
          "type": "uint16",
          "internalType": "uint16"
        }
      ],
      "outputs": [],
      "stateMutability": "nonpayable"
    },
    {
      "type": "function",
      "name": "addBodiesFromPointer",
      "inputs": [
        {
          "name": "pointer",
          "type": "address",
          "internalType": "address"
        },
        {
          "name": "decompressedLength",
          "type": "uint80",
          "internalType": "uint80"
        },
        {
          "name": "imageCount",
          "type": "uint16",
          "internalType": "uint16"
        }
      ],
      "outputs": [],
      "stateMutability": "nonpayable"
    },
    {
      "type": "function",
      "name": "addGlasses",
      "inputs": [
        {
          "name": "encodedCompressed",
          "type": "bytes",
          "internalType": "bytes"
        },
        {
          "name": "decompressedLength",
          "type": "uint80",
          "internalType": "uint80"
        },
        {
          "name": "imageCount",
          "type": "uint16",
          "internalType": "uint16"
        }
      ],
      "outputs": [],
      "stateMutability": "nonpayable"
    },
    {
      "type": "function",
      "name": "addGlassesFromPointer",
      "inputs": [
        {
          "name": "pointer",
          "type": "address",
          "internalType": "address"
        },
        {
          "name": "decompressedLength",
          "type": "uint80",
          "internalType": "uint80"
        },
        {
          "name": "imageCount",
          "type": "uint16",
          "internalType": "uint16"
        }
      ],
      "outputs": [],
      "stateMutability": "nonpayable"
    },
    {
      "type": "function",
      "name": "addHeads",
      "inputs": [
        {
          "name": "encodedCompressed",
          "type": "bytes",
          "internalType": "bytes"
        },
        {
          "name": "decompressedLength",
          "type": "uint80",
          "internalType": "uint80"
        },
        {
          "name": "imageCount",
          "type": "uint16",
          "internalType": "uint16"
        }
      ],
      "outputs": [],
      "stateMutability": "nonpayable"
    },
    {
      "type": "function",
      "name": "addHeadsFromPointer",
      "inputs": [
        {
          "name": "pointer",
          "type": "address",
          "internalType": "address"
        },
        {
          "name": "decompressedLength",
          "type": "uint80",
          "internalType": "uint80"
        },
        {
          "name": "imageCount",
          "type": "uint16",
          "internalType": "uint16"
        }
      ],
      "outputs": [],
      "stateMutability": "nonpayable"
    },
    {
      "type": "function",
      "name": "addManyBackgrounds",
      "inputs": [
        {
          "name": "_backgrounds",
          "type": "string[]",
          "internalType": "string[]"
        }
      ],
      "outputs": [],
      "stateMutability": "nonpayable"
    },
    {
      "type": "function",
      "name": "arePartsLocked",
      "inputs": [],
      "outputs": [
        {
          "name": "",
          "type": "bool",
          "internalType": "bool"
        }
      ],
      "stateMutability": "view"
    },
    {
      "type": "function",
      "name": "art",
      "inputs": [],
      "outputs": [
        {
          "name": "",
          "type": "address",
          "internalType": "contract INounsArt"
        }
      ],
      "stateMutability": "view"
    },
    {
      "type": "function",
      "name": "backgroundCount",
      "inputs": [],
      "outputs": [
        {
          "name": "",
          "type": "uint256",
          "internalType": "uint256"
        }
      ],
      "stateMutability": "view"
    },
    {
      "type": "function",
      "name": "backgrounds",
      "inputs": [
        {
          "name": "index",
          "type": "uint256",
          "internalType": "uint256"
        }
      ],
      "outputs": [
        {
          "name": "",
          "type": "string",
          "internalType": "string"
        }
      ],
      "stateMutability": "view"
    },
    {
      "type": "function",
      "name": "baseURI",
      "inputs": [],
      "outputs": [
        {
          "name": "",
          "type": "string",
          "internalType": "string"
        }
      ],
      "stateMutability": "view"
    },
    {
      "type": "function",
      "name": "bodies",
      "inputs": [
        {
          "name": "index",
          "type": "uint256",
          "internalType": "uint256"
        }
      ],
      "outputs": [
        {
          "name": "",
          "type": "bytes",
          "internalType": "bytes"
        }
      ],
      "stateMutability": "view"
    },
    {
      "type": "function",
      "name": "bodyCount",
      "inputs": [],
      "outputs": [
        {
          "name": "",
          "type": "uint256",
          "internalType": "uint256"
        }
      ],
      "stateMutability": "view"
    },
    {
      "type": "function",
      "name": "dataURI",
      "inputs": [
        {
          "name": "tokenId",
          "type": "uint256",
          "internalType": "uint256"
        },
        {
          "name": "seed",
          "type": "tuple",
          "internalType": "struct INounsSeeder.Seed",
          "components": [
            {
              "name": "background",
              "type": "uint48",
              "internalType": "uint48"
            },
            {
              "name": "body",
              "type": "uint48",
              "internalType": "uint48"
            },
            {
              "name": "accessory",
              "type": "uint48",
              "internalType": "uint48"
            },
            {
              "name": "head",
              "type": "uint48",
              "internalType": "uint48"
            },
            {
              "name": "glasses",
              "type": "uint48",
              "internalType": "uint48"
            }
          ]
        }
      ],
      "outputs": [
        {
          "name": "",
          "type": "string",
          "internalType": "string"
        }
      ],
      "stateMutability": "view"
    },
    {
      "type": "function",
      "name": "generateSVGImage",
      "inputs": [
        {
          "name": "seed",
          "type": "tuple",
          "internalType": "struct INounsSeeder.Seed",
          "components": [
            {
              "name": "background",
              "type": "uint48",
              "internalType": "uint48"
            },
            {
              "name": "body",
              "type": "uint48",
              "internalType": "uint48"
            },
            {
              "name": "accessory",
              "type": "uint48",
              "internalType": "uint48"
            },
            {
              "name": "head",
              "type": "uint48",
              "internalType": "uint48"
            },
            {
              "name": "glasses",
              "type": "uint48",
              "internalType": "uint48"
            }
          ]
        }
      ],
      "outputs": [
        {
          "name": "",
          "type": "string",
          "internalType": "string"
        }
      ],
      "stateMutability": "view"
    },
    {
      "type": "function",
      "name": "genericDataURI",
      "inputs": [
        {
          "name": "name",
          "type": "string",
          "internalType": "string"
        },
        {
          "name": "description",
          "type": "string",
          "internalType": "string"
        },
        {
          "name": "seed",
          "type": "tuple",
          "internalType": "struct INounsSeeder.Seed",
          "components": [
            {
              "name": "background",
              "type": "uint48",
              "internalType": "uint48"
            },
            {
              "name": "body",
              "type": "uint48",
              "internalType": "uint48"
            },
            {
              "name": "accessory",
              "type": "uint48",
              "internalType": "uint48"
            },
            {
              "name": "head",
              "type": "uint48",
              "internalType": "uint48"
            },
            {
              "name": "glasses",
              "type": "uint48",
              "internalType": "uint48"
            }
          ]
        }
      ],
      "outputs": [
        {
          "name": "",
          "type": "string",
          "internalType": "string"
        }
      ],
      "stateMutability": "view"
    },
    {
      "type": "function",
      "name": "getPartsForSeed",
      "inputs": [
        {
          "name": "seed",
          "type": "tuple",
          "internalType": "struct INounsSeeder.Seed",
          "components": [
            {
              "name": "background",
              "type": "uint48",
              "internalType": "uint48"
            },
            {
              "name": "body",
              "type": "uint48",
              "internalType": "uint48"
            },
            {
              "name": "accessory",
              "type": "uint48",
              "internalType": "uint48"
            },
            {
              "name": "head",
              "type": "uint48",
              "internalType": "uint48"
            },
            {
              "name": "glasses",
              "type": "uint48",
              "internalType": "uint48"
            }
          ]
        }
      ],
      "outputs": [
        {
          "name": "",
          "type": "tuple[]",
          "internalType": "struct ISVGRenderer.Part[]",
          "components": [
            {
              "name": "image",
              "type": "bytes",
              "internalType": "bytes"
            },
            {
              "name": "palette",
              "type": "bytes",
              "internalType": "bytes"
            }
          ]
        }
      ],
      "stateMutability": "view"
    },
    {
      "type": "function",
      "name": "glasses",
      "inputs": [
        {
          "name": "index",
          "type": "uint256",
          "internalType": "uint256"
        }
      ],
      "outputs": [
        {
          "name": "",
          "type": "bytes",
          "internalType": "bytes"
        }
      ],
      "stateMutability": "view"
    },
    {
      "type": "function",
      "name": "glassesCount",
      "inputs": [],
      "outputs": [
        {
          "name": "",
          "type": "uint256",
          "internalType": "uint256"
        }
      ],
      "stateMutability": "view"
    },
    {
      "type": "function",
      "name": "headCount",
      "inputs": [],
      "outputs": [
        {
          "name": "",
          "type": "uint256",
          "internalType": "uint256"
        }
      ],
      "stateMutability": "view"
    },
    {
      "type": "function",
      "name": "heads",
      "inputs": [
        {
          "name": "index",
          "type": "uint256",
          "internalType": "uint256"
        }
      ],
      "outputs": [
        {
          "name": "",
          "type": "bytes",
          "internalType": "bytes"
        }
      ],
      "stateMutability": "view"
    },
    {
      "type": "function",
      "name": "isDataURIEnabled",
      "inputs": [],
      "outputs": [
        {
          "name": "",
          "type": "bool",
          "internalType": "bool"
        }
      ],
      "stateMutability": "view"
    },
    {
      "type": "function",
      "name": "lockParts",
      "inputs": [],
      "outputs": [],
      "stateMutability": "nonpayable"
    },
    {
      "type": "function",
      "name": "owner",
      "inputs": [],
      "outputs": [
        {
          "name": "",
          "type": "address",
          "internalType": "address"
        }
      ],
      "stateMutability": "view"
    },
    {
      "type": "function",
      "name": "palettes",
      "inputs": [
        {
          "name": "index",
          "type": "uint8",
          "internalType": "uint8"
        }
      ],
      "outputs": [
        {
          "name": "",
          "type": "bytes",
          "internalType": "bytes"
        }
      ],
      "stateMutability": "view"
    },
    {
      "type": "function",
      "name": "renderer",
      "inputs": [],
      "outputs": [
        {
          "name": "",
          "type": "address",
          "internalType": "contract ISVGRenderer"
        }
      ],
      "stateMutability": "view"
    },
    {
      "type": "function",
      "name": "renounceOwnership",
      "inputs": [],
      "outputs": [],
      "stateMutability": "nonpayable"
    },
    {
      "type": "function",
      "name": "setArt",
      "inputs": [
        {
          "name": "_art",
          "type": "address",
          "internalType": "contract INounsArt"
        }
      ],
      "outputs": [],
      "stateMutability": "nonpayable"
    },
    {
      "type": "function",
      "name": "setArtDescriptor",
      "inputs": [
        {
          "name": "descriptor",
          "type": "address",
          "internalType": "address"
        }
      ],
      "outputs": [],
      "stateMutability": "nonpayable"
    },
    {
      "type": "function",
      "name": "setArtInflator",
      "inputs": [
        {
          "name": "inflator",
          "type": "address",
          "internalType": "contract IInflator"
        }
      ],
      "outputs": [],
      "stateMutability": "nonpayable"
    },
    {
      "type": "function",
      "name": "setBaseURI",
      "inputs": [
        {
          "name": "_baseURI",
          "type": "string",
          "internalType": "string"
        }
      ],
      "outputs": [],
      "stateMutability": "nonpayable"
    },
    {
      "type": "function",
      "name": "setPalette",
      "inputs": [
        {
          "name": "paletteIndex",
          "type": "uint8",
          "internalType": "uint8"
        },
        {
          "name": "palette",
          "type": "bytes",
          "internalType": "bytes"
        }
      ],
      "outputs": [],
      "stateMutability": "nonpayable"
    },
    {
      "type": "function",
      "name": "setPalettePointer",
      "inputs": [
        {
          "name": "paletteIndex",
          "type": "uint8",
          "internalType": "uint8"
        },
        {
          "name": "pointer",
          "type": "address",
          "internalType": "address"
        }
      ],
      "outputs": [],
      "stateMutability": "nonpayable"
    },
    {
      "type": "function",
      "name": "setRenderer",
      "inputs": [
        {
          "name": "_renderer",
          "type": "address",
          "internalType": "contract ISVGRenderer"
        }
      ],
      "outputs": [],
      "stateMutability": "nonpayable"
    },
    {
      "type": "function",
      "name": "toggleDataURIEnabled",
      "inputs": [],
      "outputs": [],
      "stateMutability": "nonpayable"
    },
    {
      "type": "function",
      "name": "tokenURI",
      "inputs": [
        {
          "name": "tokenId",
          "type": "uint256",
          "internalType": "uint256"
        },
        {
          "name": "seed",
          "type": "tuple",
          "internalType": "struct INounsSeeder.Seed",
          "components": [
            {
              "name": "background",
              "type": "uint48",
              "internalType": "uint48"
            },
            {
              "name": "body",
              "type": "uint48",
              "internalType": "uint48"
            },
            {
              "name": "accessory",
              "type": "uint48",
              "internalType": "uint48"
            },
            {
              "name": "head",
              "type": "uint48",
              "internalType": "uint48"
            },
            {
              "name": "glasses",
              "type": "uint48",
              "internalType": "uint48"
            }
          ]
        }
      ],
      "outputs": [
        {
          "name": "",
          "type": "string",
          "internalType": "string"
        }
      ],
      "stateMutability": "view"
    },
    {
      "type": "function",
      "name": "transferOwnership",
      "inputs": [
        {
          "name": "newOwner",
          "type": "address",
          "internalType": "address"
        }
      ],
      "outputs": [],
      "stateMutability": "nonpayable"
    },
    {
      "type": "event",
      "name": "ArtUpdated",
      "inputs": [
        {
          "name": "art",
          "type": "address",
          "indexed": false,
          "internalType": "contract INounsArt"
        }
      ],
      "anonymous": false
    },
    {
      "type": "event",
      "name": "BaseURIUpdated",
      "inputs": [
        {
          "name": "baseURI",
          "type": "string",
          "indexed": false,
          "internalType": "string"
        }
      ],
      "anonymous": false
    },
    {
      "type": "event",
      "name": "DataURIToggled",
      "inputs": [
        {
          "name": "enabled",
          "type": "bool",
          "indexed": false,
          "internalType": "bool"
        }
      ],
      "anonymous": false
    },
    {
      "type": "event",
      "name": "OwnershipTransferred",
      "inputs": [
        {
          "name": "previousOwner",
          "type": "address",
          "indexed": true,
          "internalType": "address"
        },
        {
          "name": "newOwner",
          "type": "address",
          "indexed": true,
          "internalType": "address"
        }
      ],
      "anonymous": false
    },
    {
      "type": "event",
      "name": "PartsLocked",
      "inputs": [],
      "anonymous": false
    },
    {
      "type": "event",
      "name": "RendererUpdated",
      "inputs": [
        {
          "name": "renderer",
          "type": "address",
          "indexed": false,
          "internalType": "contract ISVGRenderer"
        }
      ],
      "anonymous": false
    },
    {
      "type": "error",
      "name": "BadPaletteLength",
      "inputs": []
    },
    {
      "type": "error",
      "name": "EmptyPalette",
      "inputs": []
    },
    {
      "type": "error",
      "name": "IndexNotFound",
      "inputs": []
    }
  ],
  "bytecode": {
    "object": "0x60806040526002805460ff60a81b1916600160a81b1790553480156200002457600080fd5b5060405162002ab838038062002ab88339810160408190526200004791620000ed565b620000523362000084565b600180546001600160a01b039384166001600160a01b031991821617909155600280549290931691161790556200012c565b600080546001600160a01b038381166001600160a01b0319831681178455604051919092169283917f8be0079c531659141344cd1fd0a4f28419497f9722a3daafe3b4186f6b6457e09190a35050565b6001600160a01b0381168114620000ea57600080fd5b50565b600080604083850312156200010157600080fd5b82516200010e81620000d4565b60208401519092506200012181620000d4565b809150509250929050565b61297c806200013c6000396000f3fe608060405234801561001057600080fd5b50600436106102695760003560e01c806373ac736b11610151578063bc2d45fe116100c3578063dfe8478b11610087578063dfe8478b1461053b578063e6b1a3ae14610543578063e79c9ea614610556578063eba8180614610569578063f2fde38b14610571578063f4513a6a1461058457600080fd5b8063bc2d45fe146104d9578063bf61df1b146104ec578063cc2aa0911461050c578063cd2b825014610514578063ce2f4f531461052757600080fd5b80638bd54c06116101155780638bd54c06146104695780638da5cb5b1461047c57806391b7916a1461048d57806394f3df61146104a0578063aa5bf7d8146104b3578063b982d1b9146104c657600080fd5b806373ac736b146103f9578063773b97711461040c5780637ca942101461043057806387db11bd146104435780638ada6b0f1461045657600080fd5b80634531c0a8116101ea5780635a503f13116101ae5780635a503f131461039d5780635e70664c146103b0578063638ac270146103c35780636c0360eb146103d65780636e856531146103de578063715018a6146103f157600080fd5b80634531c0a814610354578063461fc5af1461035c5780634daebac21461036f57806355f804b31461037757806356d3163d1461038a57600080fd5b8063301bd28e11610231578063301bd28e146102da578063353c36a0146103055780633cfdafd3146103185780634479cef21461032b57806344cee73c1461034157600080fd5b8063010ecde71461026e57806304bde4dd146102835780630ba3db1a146102ac5780632a1d0769146102bf5780632ea04300146102c7575b600080fd5b61028161027c366004611cee565b610597565b005b610296610291366004611d0b565b61062d565b6040516102a39190611d74565b60405180910390f35b6102816102ba366004611e00565b6106a6565b610281610768565b6102966102d5366004611f50565b6107fa565b6001546102ed906001600160a01b031681565b6040516001600160a01b0390911681526020016102a3565b610281610313366004611e00565b61092c565b610296610326366004611f6c565b6109b6565b610333610a0f565b6040519081526020016102a3565b61029661034f366004611d0b565b610a82565b610333610ab4565b61028161036a366004611f99565b610afe565b610333610bbd565b610281610385366004611fde565b610c07565b610281610398366004611cee565b610c7c565b6102966103ab366004611d0b565b610cfb565b6102816103be366004611fde565b610d2d565b6102966103d1366004611f6c565b610de9565b610296610e55565b6102816103ec366004611f99565b610ee3565b610281610f6b565b610281610407366004611f99565b610fa1565b60025461042090600160a01b900460ff1681565b60405190151581526020016102a3565b61029661043e366004611d0b565b611029565b61029661045136600461209c565b61105b565b6002546102ed906001600160a01b031681565b610281610477366004612118565b61119b565b6000546001600160a01b03166102ed565b61028161049b36600461214f565b61122a565b6102816104ae366004611e00565b6112b0565b6102816104c1366004611e00565b61133a565b6102966104d4366004611d0b565b6113c4565b6102966104e73660046121c3565b6113f6565b6104ff6104fa366004611f50565b61142a565b6040516102a391906121de565b610333611775565b610281610522366004611f99565b6117bf565b60025461042090600160a81b900460ff1681565b610281611847565b610281610551366004611cee565b6118c1565b610281610564366004612265565b611963565b6103336119eb565b61028161057f366004611cee565b611a35565b610281610592366004611cee565b611ad0565b6000546001600160a01b031633146105ca5760405162461bcd60e51b81526004016105c1906122b7565b60405180910390fd5b6001546040516301b9a39760e01b81526001600160a01b038381166004830152909116906301b9a397906024015b600060405180830381600087803b15801561061257600080fd5b505af1158015610626573d6000803e3d6000fd5b5050505050565b6001546040516304bde4dd60e01b8152600481018390526060916001600160a01b0316906304bde4dd906024015b600060405180830381865afa158015610678573d6000803e3d6000fd5b505050506040513d6000823e601f3d908101601f191682016040526106a0919081019061231c565b92915050565b6000546001600160a01b031633146106d05760405162461bcd60e51b81526004016105c1906122b7565b600254600160a01b900460ff16156106fa5760405162461bcd60e51b81526004016105c190612364565b6001546040516305d1ed8d60e11b81526001600160a01b0390911690630ba3db1a906107309087908790879087906004016123b7565b600060405180830381600087803b15801561074a57600080fd5b505af115801561075e573d6000803e3d6000fd5b5050505050505050565b6000546001600160a01b031633146107925760405162461bcd60e51b81526004016105c1906122b7565b600254600160a01b900460ff16156107bc5760405162461bcd60e51b81526004016105c190612364565b6002805460ff60a01b1916600160a01b1790556040517f1680ee6d421f70ed6030d2fc4fcb50217a5dd617858d56562b119eca59172e5790600090a1565b6060600060405180604001604052806108128561142a565b815260015485516040516304bde4dd60e01b815265ffffffffffff90911660048201526020909201916001600160a01b03909116906304bde4dd90602401600060405180830381865afa15801561086d573d6000803e3d6000fd5b505050506040513d6000823e601f3d908101601f19168201604052610895919081019061231c565b90526002546040516311660d6b60e11b815291925073__$7233c33f2e1e35848c685b0eb24649959e$__916322cc1ad6916108e0916001600160a01b03909116908590600401612470565b600060405180830381865af41580156108fd573d6000803e3d6000fd5b505050506040513d6000823e601f3d908101601f19168201604052610925919081019061231c565b9392505050565b6000546001600160a01b031633146109565760405162461bcd60e51b81526004016105c1906122b7565b600254600160a01b900460ff16156109805760405162461bcd60e51b81526004016105c190612364565b6001546040516301a9e1b560e51b81526001600160a01b039091169063353c36a0906107309087908790879087906004016123b7565b600254606090600160a81b900460ff16156109dc576109d58383610de9565b90506106a0565b60036109e784611b2c565b6040516020016109f89291906124f0565b604051602081830303815290604052905092915050565b6001546040805163223ce77960e11b815290516000926001600160a01b031691634479cef29160048083019260209291908290030181865afa158015610a59573d6000803e3d6000fd5b505050506040513d601f19601f82011682018060405250810190610a7d9190612577565b905090565b600154604051631133b9cf60e21b8152600481018390526060916001600160a01b0316906344cee73c9060240161065b565b600154604080516308a6381560e31b815290516000926001600160a01b031691634531c0a89160048083019260209291908290030181865afa158015610a59573d6000803e3d6000fd5b6000546001600160a01b03163314610b285760405162461bcd60e51b81526004016105c1906122b7565b600254600160a01b900460ff1615610b525760405162461bcd60e51b81526004016105c190612364565b60015460405163461fc5af60e01b81526001600160a01b039091169063461fc5af90610b8690869086908690600401612590565b600060405180830381600087803b158015610ba057600080fd5b505af1158015610bb4573d6000803e3d6000fd5b50505050505050565b600154604080516326d75d6160e11b815290516000926001600160a01b031691634daebac29160048083019260209291908290030181865afa158015610a59573d6000803e3d6000fd5b6000546001600160a01b03163314610c315760405162461bcd60e51b81526004016105c1906122b7565b6003610c3e82848361260e565b507f6741b2fc379fad678116fe3d4d4b9a1a184ab53ba36b86ad0fa66340b1ab41ad8282604051610c709291906126cd565b60405180910390a15050565b6000546001600160a01b03163314610ca65760405162461bcd60e51b81526004016105c1906122b7565b600280546001600160a01b0319166001600160a01b0383169081179091556040519081527f482cbbbcf912da3be80deb8503ae1e94c0b7d5d1d0ec0af3d9d6403e06e609ee906020015b60405180910390a150565b600154604051635a503f1360e01b8152600481018390526060916001600160a01b031690635a503f139060240161065b565b6000546001600160a01b03163314610d575760405162461bcd60e51b81526004016105c1906122b7565b600254600160a01b900460ff1615610d815760405162461bcd60e51b81526004016105c190612364565b60015460405163179c199360e21b81526001600160a01b0390911690635e70664c90610db390859085906004016126cd565b600060405180830381600087803b158015610dcd57600080fd5b505af1158015610de1573d6000803e3d6000fd5b505050505050565b60606000610df684611b2c565b9050600081604051602001610e0b91906126e1565b6040516020818303038152906040529050600082604051602001610e2f919061270e565b6040516020818303038152906040529050610e4b82828761105b565b9695505050505050565b60038054610e62906124b6565b80601f0160208091040260200160405190810160405280929190818152602001828054610e8e906124b6565b8015610edb5780601f10610eb057610100808354040283529160200191610edb565b820191906000526020600020905b815481529060010190602001808311610ebe57829003601f168201915b505050505081565b6000546001600160a01b03163314610f0d5760405162461bcd60e51b81526004016105c1906122b7565b600254600160a01b900460ff1615610f375760405162461bcd60e51b81526004016105c190612364565b600154604051636e85653160e01b81526001600160a01b0390911690636e85653190610b8690869086908690600401612590565b6000546001600160a01b03163314610f955760405162461bcd60e51b81526004016105c1906122b7565b610f9f6000611c34565b565b6000546001600160a01b03163314610fcb5760405162461bcd60e51b81526004016105c1906122b7565b600254600160a01b900460ff1615610ff55760405162461bcd60e51b81526004016105c190612364565b6001546040516373ac736b60e01b81526001600160a01b03909116906373ac736b90610b8690869086908690600401612590565b6001546040516307ca942160e41b8152600481018390526060916001600160a01b031690637ca942109060240161065b565b6040805160808101825284815260208101849052600154835183516304bde4dd60e01b815265ffffffffffff909116600482015260609360009392908301916001600160a01b03909116906304bde4dd90602401600060405180830381865afa1580156110cc573d6000803e3d6000fd5b505050506040513d6000823e601f3d908101601f191682016040526110f4919081019061231c565b81526020016111028561142a565b905260025460405163092ba0e960e41b815291925073__$7233c33f2e1e35848c685b0eb24649959e$__916392ba0e909161114d916001600160a01b03909116908590600401612762565b600060405180830381865af415801561116a573d6000803e3d6000fd5b505050506040513d6000823e601f3d908101601f19168201604052611192919081019061231c565b95945050505050565b6000546001600160a01b031633146111c55760405162461bcd60e51b81526004016105c1906122b7565b600254600160a01b900460ff16156111ef5760405162461bcd60e51b81526004016105c190612364565b6001546040516345eaa60360e11b815260ff841660048201526001600160a01b03838116602483015290911690638bd54c0690604401610db3565b6000546001600160a01b031633146112545760405162461bcd60e51b81526004016105c1906122b7565b600254600160a01b900460ff161561127e5760405162461bcd60e51b81526004016105c190612364565b6001546040516348dbc8b560e11b81526001600160a01b03909116906391b7916a90610db390859085906004016127e5565b6000546001600160a01b031633146112da5760405162461bcd60e51b81526004016105c1906122b7565b600254600160a01b900460ff16156113045760405162461bcd60e51b81526004016105c190612364565b6001546040516394f3df6160e01b81526001600160a01b03909116906394f3df61906107309087908790879087906004016123b7565b6000546001600160a01b031633146113645760405162461bcd60e51b81526004016105c1906122b7565b600254600160a01b900460ff161561138e5760405162461bcd60e51b81526004016105c190612364565b60015460405163154b7efb60e31b81526001600160a01b039091169063aa5bf7d8906107309087908790879087906004016123b7565b60015460405163b982d1b960e01b8152600481018390526060916001600160a01b03169063b982d1b99060240161065b565b600154604051635e16a2ff60e11b815260ff831660048201526060916001600160a01b03169063bc2d45fe9060240161065b565b6001546020820151604051631133b9cf60e21b815265ffffffffffff90911660048201526060916000916001600160a01b03909116906344cee73c90602401600060405180830381865afa158015611486573d6000803e3d6000fd5b505050506040513d6000823e601f3d908101601f191682016040526114ae919081019061231c565b60015460408581015190516307ca942160e41b815265ffffffffffff90911660048201529192506000916001600160a01b0390911690637ca9421090602401600060405180830381865afa15801561150a573d6000803e3d6000fd5b505050506040513d6000823e601f3d908101601f19168201604052611532919081019061231c565b6001546060860151604051635a503f1360e01b815265ffffffffffff90911660048201529192506000916001600160a01b0390911690635a503f1390602401600060405180830381865afa15801561158e573d6000803e3d6000fd5b505050506040513d6000823e601f3d908101601f191682016040526115b6919081019061231c565b600154608087015160405163b982d1b960e01b815265ffffffffffff90911660048201529192506000916001600160a01b039091169063b982d1b990602401600060405180830381865afa158015611612573d6000803e3d6000fd5b505050506040513d6000823e601f3d908101601f1916820160405261163a919081019061231c565b60408051600480825260a0820190925291925060009190816020015b6040805180820190915260608082526020820152815260200190600190039081611656579050509050604051806040016040528086815260200161169987611c84565b815250816000815181106116af576116af612880565b602002602001018190525060405180604001604052808581526020016116d486611c84565b815250816001815181106116ea576116ea612880565b6020026020010181905250604051806040016040528084815260200161170f85611c84565b8152508160028151811061172557611725612880565b6020026020010181905250604051806040016040528083815260200161174a84611c84565b8152508160038151811061176057611760612880565b60209081029190910101529695505050505050565b6001546040805163cc2aa09160e01b815290516000926001600160a01b03169163cc2aa0919160048083019260209291908290030181865afa158015610a59573d6000803e3d6000fd5b6000546001600160a01b031633146117e95760405162461bcd60e51b81526004016105c1906122b7565b600254600160a01b900460ff16156118135760405162461bcd60e51b81526004016105c190612364565b600154604051630cd2b82560e41b81526001600160a01b039091169063cd2b825090610b8690869086908690600401612590565b6000546001600160a01b031633146118715760405162461bcd60e51b81526004016105c1906122b7565b6002805460ff60a81b198116600160a81b9182900460ff1615918202179091556040518181527f360c3d72ee193226275b842f85231c259c934e85459fed80fa68e502ffa9dbde90602001610cf0565b6000546001600160a01b031633146118eb5760405162461bcd60e51b81526004016105c1906122b7565b600254600160a01b900460ff16156119155760405162461bcd60e51b81526004016105c190612364565b600180546001600160a01b0319166001600160a01b0383169081179091556040519081527f89382d75256b43b6826ad8d6cbd8e517eaf5e10f1ef4c8f123c9a25ac4529b5590602001610cf0565b6000546001600160a01b0316331461198d5760405162461bcd60e51b81526004016105c1906122b7565b600254600160a01b900460ff16156119b75760405162461bcd60e51b81526004016105c190612364565b6001546040516373ce4f5360e11b81526001600160a01b039091169063e79c9ea690610b8690869086908690600401612896565b600154604080516375d40c0360e11b815290516000926001600160a01b03169163eba818069160048083019260209291908290030181865afa158015610a59573d6000803e3d6000fd5b6000546001600160a01b03163314611a5f5760405162461bcd60e51b81526004016105c1906122b7565b6001600160a01b038116611ac45760405162461bcd60e51b815260206004820152602660248201527f4f776e61626c653a206e6577206f776e657220697320746865207a65726f206160448201526564647265737360d01b60648201526084016105c1565b611acd81611c34565b50565b6000546001600160a01b03163314611afa5760405162461bcd60e51b81526004016105c1906122b7565b600154604051633955254b60e11b81526001600160a01b038381166004830152909116906372aa4a96906024016105f8565b606081600003611b535750506040805180820190915260018152600360fc1b602082015290565b8160005b8115611b7d5780611b67816128c9565b9150611b769050600a836128f8565b9150611b57565b6000816001600160401b03811115611b9757611b97611e64565b6040519080825280601f01601f191660200182016040528015611bc1576020820181803683370190505b5090505b8415611c2c57611bd660018361290c565b9150611be3600a8661291f565b611bee906030612933565b60f81b818381518110611c0357611c03612880565b60200101906001600160f81b031916908160001a905350611c25600a866128f8565b9450611bc5565b949350505050565b600080546001600160a01b038381166001600160a01b0319831681178455604051919092169283917f8be0079c531659141344cd1fd0a4f28419497f9722a3daafe3b4186f6b6457e09190a35050565b60015481516060916001600160a01b03169063bc2d45fe908490600090611cad57611cad612880565b01602001516040516001600160e01b031960e084901b16815260f89190911c600482015260240161065b565b6001600160a01b0381168114611acd57600080fd5b600060208284031215611d0057600080fd5b813561092581611cd9565b600060208284031215611d1d57600080fd5b5035919050565b60005b83811015611d3f578181015183820152602001611d27565b50506000910152565b60008151808452611d60816020860160208601611d24565b601f01601f19169290920160200192915050565b6020815260006109256020830184611d48565b60008083601f840112611d9957600080fd5b5081356001600160401b03811115611db057600080fd5b602083019150836020828501011115611dc857600080fd5b9250929050565b803569ffffffffffffffffffff81168114611de957600080fd5b919050565b803561ffff81168114611de957600080fd5b60008060008060608587031215611e1657600080fd5b84356001600160401b03811115611e2c57600080fd5b611e3887828801611d87565b9095509350611e4b905060208601611dcf565b9150611e5960408601611dee565b905092959194509250565b634e487b7160e01b600052604160045260246000fd5b604051601f8201601f191681016001600160401b0381118282101715611ea257611ea2611e64565b604052919050565b803565ffffffffffff81168114611de957600080fd5b600060a08284031215611ed257600080fd5b60405160a081018181106001600160401b0382111715611ef457611ef4611e64565b604052905080611f0383611eaa565b8152611f1160208401611eaa565b6020820152611f2260408401611eaa565b6040820152611f3360608401611eaa565b6060820152611f4460808401611eaa565b60808201525092915050565b600060a08284031215611f6257600080fd5b6109258383611ec0565b60008060c08385031215611f7f57600080fd5b82359150611f908460208501611ec0565b90509250929050565b600080600060608486031215611fae57600080fd5b8335611fb981611cd9565b9250611fc760208501611dcf565b9150611fd560408501611dee565b90509250925092565b60008060208385031215611ff157600080fd5b82356001600160401b0381111561200757600080fd5b61201385828601611d87565b90969095509350505050565b60006001600160401b0382111561203857612038611e64565b50601f01601f191660200190565b600082601f83011261205757600080fd5b813561206a6120658261201f565b611e7a565b81815284602083860101111561207f57600080fd5b816020850160208301376000918101602001919091529392505050565b600080600060e084860312156120b157600080fd5b83356001600160401b03808211156120c857600080fd5b6120d487838801612046565b945060208601359150808211156120ea57600080fd5b506120f786828701612046565b925050611fd58560408601611ec0565b803560ff81168114611de957600080fd5b6000806040838503121561212b57600080fd5b61213483612107565b9150602083013561214481611cd9565b809150509250929050565b6000806020838503121561216257600080fd5b82356001600160401b038082111561217957600080fd5b818501915085601f83011261218d57600080fd5b81358181111561219c57600080fd5b8660208260051b85010111156121b157600080fd5b60209290920196919550909350505050565b6000602082840312156121d557600080fd5b61092582612107565b600060208083018184528085518083526040925060408601915060408160051b87010184880160005b8381101561225757888303603f190185528151805187855261222b88860182611d48565b91890151858303868b01529190506122438183611d48565b968901969450505090860190600101612207565b509098975050505050505050565b60008060006040848603121561227a57600080fd5b61228384612107565b925060208401356001600160401b0381111561229e57600080fd5b6122aa86828701611d87565b9497909650939450505050565b6020808252818101527f4f776e61626c653a2063616c6c6572206973206e6f7420746865206f776e6572604082015260600190565b60006122fa6120658461201f565b905082815283838301111561230e57600080fd5b610925836020830184611d24565b60006020828403121561232e57600080fd5b81516001600160401b0381111561234457600080fd5b8201601f8101841361235557600080fd5b611c2c848251602084016122ec565b60208082526010908201526f14185c9d1cc8185c99481b1bd8dad95960821b604082015260600190565b81835281816020850137506000828201602090810191909152601f909101601f19169091010190565b6060815260006123cb60608301868861238e565b905069ffffffffffffffffffff8416602083015261ffff8316604083015295945050505050565b600082825180855260208086019550808260051b84010181860160005b8481101561246357601f1986840301895281516040815181865261243582870182611d48565b9150508582015191508481038686015261244f8183611d48565b9a86019a945050509083019060010161240f565b5090979650505050505050565b60018060a01b0383168152604060208201526000825160408084015261249960808401826123f2565b90506020840151603f19848303016060850152610e4b8282611d48565b600181811c908216806124ca57607f821691505b6020821081036124ea57634e487b7160e01b600052602260045260246000fd5b50919050565b60008084546124fe816124b6565b60018281168015612516576001811461252b5761255a565b60ff198416875282151583028701945061255a565b8860005260208060002060005b858110156125515781548a820152908401908201612538565b50505082870194505b50505050835161256e818360208801611d24565b01949350505050565b60006020828403121561258957600080fd5b5051919050565b6001600160a01b0393909316835269ffffffffffffffffffff91909116602083015261ffff16604082015260600190565b601f821115612609576000816000526020600020601f850160051c810160208610156125ea5750805b601f850160051c820191505b81811015610de1578281556001016125f6565b505050565b6001600160401b0383111561262557612625611e64565b6126398361263383546124b6565b836125c1565b6000601f84116001811461266d57600085156126555750838201355b600019600387901b1c1916600186901b178355610626565b600083815260209020601f19861690835b8281101561269e578685013582556020948501946001909201910161267e565b50868210156126bb5760001960f88860031b161c19848701351681555b505060018560011b0183555050505050565b602081526000611c2c60208301848661238e565b6402737bab7160dd1b815260008251612701816005850160208701611d24565b9190910160050192915050565b6402737bab7160dd1b81526000825161272e816005850160208701611d24565b7f2069732061206d656d626572206f6620746865204e6f756e732044414f0000006005939091019283015250602201919050565b60018060a01b038316815260406020820152600082516080604084015261278c60c0840182611d48565b90506020840151603f19808584030160608601526127aa8383611d48565b925060408601519150808584030160808601526127c78383611d48565b925060608601519150808584030160a086015250610e4b82826123f2565b60208082528181018390526000906040600585901b8401810190840186845b8781101561287357868403603f190183528135368a9003601e1901811261282a57600080fd5b890185810190356001600160401b0381111561284557600080fd5b80360382131561285457600080fd5b61285f86828461238e565b955050509184019190840190600101612804565b5091979650505050505050565b634e487b7160e01b600052603260045260246000fd5b60ff8416815260406020820152600061119260408301848661238e565b634e487b7160e01b600052601160045260246000fd5b6000600182016128db576128db6128b3565b5060010190565b634e487b7160e01b600052601260045260246000fd5b600082612907576129076128e2565b500490565b818103818111156106a0576106a06128b3565b60008261292e5761292e6128e2565b500690565b808201808211156106a0576106a06128b356fea26469706673582212207cc6f6e1993edbf83f099fde892a79725fa4f660094cf3fc2044c267bb0c67a464736f6c63430008170033",
    "linkReferences": {
      "contracts/libs/NFTDescriptorV2.sol": {
        "NFTDescriptorV2": [
          {
            "start": 2536,
            "length": 20
          },
          {
            "start": 4693,
            "length": 20
          }
        ]
      }
    }
  }
}